:10086900D3EF9400EE940040147D6E7C00ED1D7072
:0D087900011CED4C70F7EF1F70E61E80E3D0
:01088600224F
:04083F00AB07AA0653
:10084300900000D3E5829BE5839A5019C280C28150
:100853007FF47E01120869D280D2817FF47E011277
:050863000869A380DE1E
:01086800226D
:03000300020800F0
:10080000C0E0C083C082C0D075D000C2AFAF09AE17
:100810000812083F0509E509700205087F327E00CD
:10082000120869C3E509940AE508940040067508B2
:0F08300000750900D2AFD0D0D082D083D0E03293
:08089300D2AFD2A8C28880FE9A
:030000000208876C
:0C088700787FE4F6D8FD75810902089323
:00000001FF
