:020000000130CD
:100030007581607580FF7590FF7F0A7CEF120086E6
:1000400080EE7530007590FE801E7530017590FE53
:1000500080251F1FEC03FCE530600D801A0F0FECAC
:1000600023FCE5306002800F8C801200A6E590230F
:10007000F59012008680F18C801200A6E59003F5C1
:100080009012008680F175B03030B40530B50D8027
:100090001475B00330B0AB30B1B8800975B003301F
:1000A000B0A830B1B822EF7EC87DFADDFEDEFADFFF
:0300B000F6FF2236
:00000001FF
