:10090B0010121B130B031A120A02191109011810EA
:02091B000800D2
:06092800E4FF0FBF30FCEC
:01092E0022A6
:06092F00E4FF0FBF08FC0D
:01093500229F
:0208BF00AE0782
:1008C100C290120928E4FDEE30E704D2928002C200
:1008D10092D29112092FC29112092FEE25E0FE0D3D
:0508E100BD08E4C29215
:0108E60022EF
:1008E700D292120928E4FDD29112092FEE25E0FEDB
:1008F700309203430601C29112092F0DBD08E8C2C9
:0309070092AF06A6
:01090A0022CA
:0A091E00AC051208BFAF040208BFC9
:070936001208BF1208E722BE
:10088C007FA41208BF2093FD7F151208BF1208E742
:10089C00E4FE74122EF8E6B50704AB0680040EBE17
:1008AC0010F07FA11208BFAD037FC812091E209360
:0308BC00D480FBEA
:03000000020800F3
:0C080000787FE4F6D8FD758126020847D9
:10080C0002088CE493A3F8E493A34003F68001F26E
:10081C0008DFF48029E493A3F85407240CC8C333ED
:10082C00C4540F4420C8834004F456800146F6DFBC
:10083C00E4800B010204081020408090090BE47E38
:10084C00019360BCA3FF543F30E509541FFEE493B1
:10085C00A360010ECF54C025E060A840B8E493A378
:10086C00FAE493A3F8E493A3C8C582C8CAC583CAA3
:10087C00F0A3C8C582C8CAC583CADFE9DEE780BE5B
:01091D0000D9
:00000001FF
