:1000030075300175310975320275330A7534087517
:100013003503753611753707753810753904753A18
:1000230006753B12753C0B753D05753E0E753F0C11
:1000330075400F75411975420D7543187544177551
:10004300451A75461375471675481C75491B754A3D
:1000530015754B14754C1F754D1E754E20754F1D30
:10006300E4F508E4F509C3741F9508FFE509C39F88
:10007300503274312509F8E6FF74302509F8E6D3C8
:030083009F401D7E
:1000860074312509F8E6F50A74302509F8E6FF7497
:0D009600312509F8A60774302509F8A60ADF
:0D00A300050980C20508E508B420B880FEFC
:030000000200B04B
:0C00B000787FE4F6D8FD75814F02000354
:00000001FF
