:101250000001020304050607080900000000000061
:1012600000010203040506070809FBFDFAFFD10D82
:0F129900EFD394004009E4FE0EBE6EFC1F80F1FF
:0112A8002223
:1012850075A0FFC297D296C2957F01121299D29589
:0412950020A7ED227F
:071270007FCF1212777F040B
:0E1277008FA0C297C296C295121285D2952200
:10122A00AF08EF3395E0FE74602FF58274123EF535
:08123A0083E493F5212430FF49
:0E1242008FA0D297C296C295121285D2952225
:10119F007508FFD2957F011212777F381212777F71
:1011AF000C1212777F061212777F801212777F014F
:1011BF00121277E4F51FF521F520F50CF50BF50A62
:1011CF00F509F510F50FF50EF50DF51EF51DF51CCE
:0711DF00F51BF511F52222BA
:1008000075B0FEE5B064FE70030208F17F051212B8
:1008100099E5B064FE6028E5B054F0F51A249060C4
:100820001B24C0601224E0600924F07012E4F50873
:10083000800D75080180087508028003750803E5BE
:10084000B0B4FEFBE50860136401600FE5086402C4
:100850006009E508640360030208EEE52060087F94
:1008600001121277E4F520E51170427F0AFEFDFCCB
:10087000AB0CAA0BA90AA80912105EA804A905AA24
:1008800006AB07AF08EF3395E0FE74502FF5827486
:10089000123EF583E493FFE4FCFDFEEB2FF50CEE36
:1008A0003AF50BED39F50AEC38F5098041E47F0A99
:1008B000FEFDFCAB10AA0FA90EA80D12105EA80435
:1008C000A905AA06AB07AF08EF3395E0FE74502FD9
:1008D000F58274123EF583E493FFE4FCFDFEEB2FFA
:1008E000F510EE3AF50FED39F50EEC38F50D121264
:1008F0002A75B0FDE5B064FD70030209E67F0512BC
:100900001299E5B064FD6028E5B054F0F51A249022
:10091000601B24C0601224E0600924F07012750886
:1009200004800D75080580087508068003750807A2
:10093000E5B0B4FDFBE50864046015E508640560F6
:100940000FE50864066009E508640760030209E32F
:10095000E52060087F01121277E4F520E51170426E
:100960007F0AFEFDFCAB0CAA0BA90AA80912105EB7
:10097000A804A905AA06AB07AF08EF3395E0FE74FB
:10098000502FF58274123EF583E493FFE4FCFDFEE4
:10099000EB2FF50CEE3AF50BED39F50AEC38F509CD
:1009A0008041E47F0AFEFDFCAB10AA0FA90EA80D42
:1009B00012105EA804A905AA06AB07AF08EF33958D
:1009C000E0FE74502FF58274123EF583E493FFE449
:1009D000FCFDFEEB2FF510EE3AF50FED39F50EECC0
:1009E00038F50D12122A75B0FBE5B064FB700302F6
:1009F0000AE57F05121299E5B064FB6028E5B05462
:100A0000F0F51A2490601B24C0601224E0600924D1
:100A1000F07012750808800D750809800875080ABD
:100A2000800375080BE5B0B4FBFBE50864086009BA
:100A3000E50864096003020ACCE52060087F011222
:100A40001277E4F520E51170427F0AFEFDFCAB0C45
:100A5000AA0BA90AA80912105EA804A905AA06AB48
:100A600007AF08EF3395E0FE74502FF58274123E05
:100A7000F583E493FFE4FCFDFEEB2FF50CEE3AF575
:100A80000BED39F50AEC38F5098041E47F0AFEFDEB
:100A9000FCAB10AA0FA90EA80D12105EA804A905A0
:100AA000AA06AB07AF08EF3395E0FE74502FF5822E
:100AB00074123EF583E493FFE4FCFDFEEB2FF5108A
:100AC000EE3AF50FED39F50EEC38F50DE508B40BFF
:100AD00006751101752202E508B40A067511017543
:100AE000220112122A75B0F7E5B064F77003020D07
:100AF000F87F05121299E5B064F76028E5B054F06C
:100B0000F51A2490601B24C0601224E0600924F0D0
:100B1000701275080C800D75080D800875080E8020
:100B20000375080FE5B0B4F7FBE50824F360301453
:100B30007003020DDE14604724036003020DF8AF5A
:100B400008EF3395E0FE74602FF58274123EF58352
:100B5000E4932430FF12124275110175220322AF73
:100B600008EF3395E0FE74602FF58274123EF58332
:100B7000E4932430FF12124275110175220422758C
:100B80002001E52264017057121270E50C2510F562
:100B90001EE50B350FF51DE50A350EF51CE509358B
:100BA0000DF51BAF1EAE1DAD1CAC1BEC4D4E4F70BA
:100BB00003020DD7E47B0AFAF9F81211E6EB2430B0
:100BC000FF121242AF1EAE1DAD1CAC1BE47B0AFA35
:100BD000F9F81211E68F1E8E1D8D1C8C1B80C4E54A
:100BE0002264026003020C97121270C3E50C951088
:100BF000FFE50B950FFEE50A950EFDE509950DFC49
:100C0000E4FBFAF9F8C31210BB501BC3E50C9510B6
:100C1000F51EE50B950FF51DE50A950EF51CE5098A
:100C2000950DF51B8019C3E510950CF51EE50F9584
:100C30000BF51DE50E950AF51CE50D9509F51BAFA5
:100C40001EAE1DAD1CAC1BEC4D4E4F602BE47B0A61
:100C5000FAF9F81211E6EB2430FF121242AF1EAE81
:100C60001DAD1CAC1BE47B0AFAF9F81211E68F1ECD
:100C70008E1D8D1C8C1B80C7C3E50C9510E50B9554
:100C80000FFEE50A950EFDE509950DFC3350057F35
:100C90002D121242020DD7E5226403705412127015
:100CA000AF10AE0FAD0EAC0DAB0CAA0BA90AA80984
:100CB00012105E802FAF1EAE1DAD1CAC1BEC4D4E56
:100CC0004F602BE47B0AFAF9F81211E6EB2430FFAF
:100CD000121242AF1EAE1DAD1CAC1BE47B0AFAF92A
:100CE000F81211E68F1E8E1D8D1C8C1B80C7020D05
:100CF000D7E52264046003020DF8121270E4F521B6
:100D0000AF10AE0FAD0EAC0DEC4D4E4F70197F72A3
:100D10001212427F6F1212427F721212427F7212BF
:100D200012427F45020DD4AF0CAE0BAD0AAC09ECFC
:100D3000120F9FC004C005C006C007AF10AE0FADB4
:100D40000EAC0DEC120F9FA804A905AA06AB07D0A4
:100D500007D006D005D004120F02E4FBFA797A78A6
:100D600044120DF9120FDD8F1E8E1D8D1C8C1BAFD2
:100D70001EAE1DAD1CAC1BEC4D4E4F6037E47B0A24
:100D8000FAF9F81211E6EB2430FF121242AF1EAE50
:100D90001DAD1CAC1BE47B0AFAF9F81211E68F1E9C
:100DA0008E1D8D1C8C1B0521E521B403C27F2E12E4
:100DB000124280BBAB10AA0FA90EA80DAF0CAE0B50
:100DC000AD0AAC091211E6E4FBFAF9F8C31210BB44
:100DD00040057F301212427F3D12124280057F0192
:100DE000121277E4F50CF50BF50AF509F510F50F7D
:090DF000F50EF50DF511F52222B6
:0812B50012119F12080080FBDA
:100DF900EC4D6011E8497017ED33EC3304600DE4F4
:100E0900FCFFFEFD22E933E8330470F802104912B1
:100E1900101458046009E4CC2481500628500902B2
:100E29001053284003021050C0E0EB4A7044B980C7
:100E390006D0E0FB02103FEF4E701CBD8008EBFFAF
:100E4900EAFEE9FD80EBE98DF0A4FEE5F0020EE291
:100E5900E9CDF9EAFEEBFFEF89F0A4FCE5F0CE89D4
:100E6900F0A42EFFE435F0CD89F0A42DFEE435F091
:100E79008067EF4E7005BD80D780C3EF8BF0A4ACBF
:100E8900F0EE8BF0A42CFCE435F0F8EF8AF0A42CFA
:100E9900E5F038FCE433CB8DF0A42CFCE5F03BF80D
:100EA900EE8AF0A42CFCE5F038F8E433CF89F0A4FD
:100EB9002CFCE5F038CF3400CE89F0A42FFFE5F003
:100EC9003EFEE433C98DF0A42EFEE5F039CD8AF05B
:100ED900A42FFFE5F03EFEE43DFD33D0E0FB5007D3
:100EE9000BBB000F021053EC2CFCEF33FFEE33FE6B
:060EF900ED33FD02102B99
:100EFF00021053EC5D046005E859047003021049B9
:100F0F00121014580460F6EC4860F2EC7004FDFE09
:100F1F00FF22C860DB2481C85009C39860025006C5
:100F2F000210509850CAF582E9294B4A7005AB82DE
:100F3F0002103F75F0007C1A7880C3EF9BEE9AED9C
:100F4F0099400DC3EF9BFFEE9AFEED99FDE842F03D
:100F5F00DC23ACF0D0E0FFD0E0FED0E0FDAB822090
:100F6F00E7101BEB60BAEC2CFCEF33FFEE33FEED1A
:100F7F0033FD02102BE803F830E705C0F075F000E1
:100F8F00EF2FFFEE33FEED33FD40B830E7C280AAFE
:100F9F0075F020800E75F010800575F0087D007ECD
:100FAF00007F003392D530D5031210ADEC334010D3
:100FBF00EF33FFEE33FEED33FDEC33FCD5F0ED22D6
:0E0FCF00E5F0247EA2D513CC92E7CDCEFF2212
:100FDD00EDD2E7CD33EC3392D524814006E4FFFE0C
:100FED00FDFC22FCE4CFCECDCC24E0501174FF806B
:100FFD00EDC3CC13CCCD13CDCE13CECF13CF047008
:07100D00F030D5DE0210AD4A
:10101400E9D2E7C933E833F892D5EDD2E7CD33EC22
:0710240033FC5002B2D5229B
:10102B00EC30E7100FBF000C0EBE00080DBD000426
:10103B000BEB6014A2D5EB13FCED92E7FD2274FFD2
:10104B00FCFDFEFF22E480F8A2D574FF13FC7D802B
:03105B00E480EF3F
:030000000212A940
:0C12A900787FE4F6D8FD7581220212B5B2
:10105E00E88FF0A4CC8BF0A42CFCE98EF0A42CFC31
:10106E008AF0EDA42CFCEA8EF0A4CDA8F08BF0A4AF
:10107E002DCC3825F0FDE98FF0A42CCD35F0FCEB0E
:10108E008EF0A4FEA9F0EB8FF0A4CFC5F02ECD39D3
:0F109E00FEE43CFCEAA42DCE35F0FDE43CFC2240
:1011E600C2D5E830E70FB2D5E4C39BFBE49AFAE434
:1011F60099F9E498F8EC30E717B2D512121C1211DF
:101206000DE4C39BFBE49AFAE499F9E498F88003A9
:1012160012110D30D50DE4C39FFFE49EFEE49DFD43
:04122600E49CFC2226
:0E10AD00C3E49FFFE49EFEE49DFDE49CFC2254
:1010BB00EB9FF5F0EA9E42F0E99D42F0EC6480C8AC
:0610CB0064809845F0224C
:1010D10075F008758200EF2FFFEE33FECD33CDCCD6
:1010E10033CCC58233C5829BED9AEC99E582984059
:1010F1000CF582EE9BFEED9AFDEC99FC0FD5F0D636
:10110100E4CEFBE4CDFAE4CCF9A88222B800C1B95F
:101111000059BA002DEC8BF084CFCECDFCE5F0CB9D
:10112100F97818EF2FFFEE33FEED33FDEC33FCEBD6
:1011310033FB10D703994004EB99FB0FD8E5E4F991
:10114100FA227818EF2FFFEE33FEED33FDEC33FC7E
:10115100C933C910D7059BE99A4007EC9BFCE99A72
:10116100F90FD8E0E4C9FAE4CCFB2275F010EF2FB7
:10117100FFEE33FEED33FDCC33CCC833C810D707B7
:101181009BEC9AE899400AED9BFDEC9AFCE899F8F2
:0E1191000FD5F0DAE4CDFBE4CCFAE4C8F92285
:00000001FF
