:020000000130CD
:1000300075816078007901C2D5D2B020910BC2D50C
:1000400088308931D2B012006B2090EF12006B1211
:10005000009512008020D50302004CC2B01200A20D
:10006000D2B01200A22091F302003EE5309000AB26
:100070009390FE00F0E5319000AB9390FD00F022EC
:100080001530E530B4FF0D7530091531E531B4FF99
:1000900003D2D522227F0A7EC87DFADDFEDEFADF9A
:1000A000F6227FC87EFADEFEDFFA22C0F9A4B099FC
:0500B0009282F880902F
:00000001FF
