:060ABC00010D00010C0019
:0C0AA100E4FFE4FE0EBE21FC0FBF0AF6CD
:010AAD002226
:040A2A007F057E00C6
:040A2E00AD07AC065E
:100A3200E4FBFAC3EB9DEA9C500A120AA10BBB002D
:040A4200010A80EF36
:010A4600228D
:100A7D00C2A0D2A1D2A200000000A2979200C2A2F1
:020A8D00A200C5
:010A8F002244
:100A4700120A7D40FBC2A0C2A1C2A200008F900083
:0C0A5700000000D2A200000000C2A22299
:070AAE00EF4480FF020A473C
:100A6300120A7D40FBD2A0C2A1C2A28F9000000057
:0A0A730000D2A200000000C2A2227F
:1009B8007F0F7E00120A2E7F38120A47120A2A7FFA
:1009C8000C120A47120A2A7F06120A471F7E0012D3
:0E09D8000A2E7F01120A477F057E00020A2EBA
:1009E6001209B8120A2A758921758DFD758BFDD2FB
:1009F600AFD2ABD28E758C45E4F58AD2A9D28CC221
:040A0600A4C2A522BF
:03000B00020A0ADC
:100A0A00C0E0C0D0C2A9758C45758A00050DE50DF8
:100A1A00B41406750C01750D00D2A9D0D0D0E032FD
:03001B00020AB521
:070AB500C2ABB2A3D2AB32C9
:100A9000D2A4C2A430A7FD7580FFD2A5AF80C2A5A5
:010AA0002233
:04096C00AB07AA0625
:100970007C007D641209178F827C007D641209055A
:10098000C3EB9FFFEA9EFE7D0A1209178E0A8F0BAA
:10099000AE02AF037C007D0A1209177F02120AAE75
:1009A000AF82EF2430FF120A63E50B2430FF120AF6
:0809B00063ED2430FF020A632D
:10088C00E4F91209E6C2A3E4FF120AAE7F66120A6B
:10089C00637F3A120A637F05120AAE7F48120A631D
:1008AC007F7A120A63AD09AC08120A907508008FA2
:1008BC0009C3E5099480E50894004009D3ED9480C0
:1008CC00EC94004014D3E5099480E508940050138F
:1008DC00C3ED9480EC9400400A09D2A600000000FD
:1008EC0000C2A6E50CB401BDE4F50CE9C313F9FF95
:0908FC007E0012096CE4F980ACE5
:03000000020800F3
:0C080000787FE4F6D8FD758120020847DF
:10090500EF8DF0A4A8F0CF8CF0A428CE8DF0A42E06
:02091500FE22C0
:10091700BC000BBE0029EF8DF084FFADF022E4CCC4
:10092700F875F008EF2FFFEE33FEEC33FCEE9DEC8D
:10093700984005FCEE9DFE0FD5F0E9E4CEFD22EDD3
:10094700F8F5F0EE8420D21CFEADF075F008EF2F1D
:10095700FFED33FD4007985006D5F0F222C398FD0E
:050967000FD5F0EA22AB
:10080C0002088CE493A3F8E493A34003F68001F26E
:10081C0008DFF48029E493A3F85407240CC8C333ED
:10082C00C4540F4420C8834004F456800146F6DFBC
:10083C00E4800B0102040810204080900ABCE47E86
:10084C00019360BCA3FF543F30E509541FFEE493B1
:10085C00A360010ECF54C025E060A840B8E493A378
:10086C00FAE493A3F8E493A3C8C582C8CAC583CAA3
:10087C00F0A3C8C582C8CAC583CADFE9DEE780BE5B
:010AC2000033
:00000001FF
