:07099700907FFF7480F02245
:10095D007FF47E017D787C00ED1D70011CED4C70E7
:0A096D00F7EF1F70011EEF4E70EA55
:01097700225D
:0F093300150A74DE907FFCF0AF0A7E0012097E79
:100942007FE87E037D787C00ED1D70011CED4C700C
:0A095200F7EF1F70011EEF4E70EA70
:01095C002278
:06097800E4F50AAF0AFEDF
:0D097E00E4F5988F99209904C29980F92220
:10080000120997758901D2AFD2A9C28D750A2675D2
:100810000800750919120933E50915097002150850
:10082000D3E5099413E508940050EA750A1A75088F
:1008300000750913120933E509150970021508D36B
:10084000E5099409E508940050EA750A0A7508005C
:10085000750909120933E509150970021508D3E570
:10086000099400E508940050EA750800750905121E
:100870000978907FFC74DFF012095D74DEF01209D4
:100880005DE509150970021508D3E5099400E5082E
:10089000940050DB750A26750800750919150A744D
:1008A000F3120937E509150970021508D3E5099413
:1008B00013E508940050E6750A1A750800750913C7
:1008C000150A907FFC74F312093AE50915097002C4
:1008D0001508D3E5099409E508940050E3750A0A60
:1008E000750800750909150A907FFC74F312093A1E
:1008F000E509150970021508D3E5099400E5089487
:100900000050E3750800750905D3E5099400E50872
:100910009400500302080C120978907FFC74FBF0DD
:1009200012095D74F3F012095DE509150970DA1515
:030930000880D666
:0300000002098B67
:0C098B00787FE4F6D8FD75810A020800B0
:00000001FF
